:100000000C942A001895000018950000189500001F
:10001000189500001895000018950000189500002C
:10002000189500001895000018950000189500001C
:10003000189500001895000018950000189500000C
:1000400018950000189500001895000018950000FC
:10005000189500008FE58DBFC8E3E0E24E2E84E0E6
:100060008EBFD4E0F4E05F2EA89584B7082E877F7A
:1000700084BF88E1992781BD91BDEEEFF3E0A0E652
:10008000B0E088278D933197E9F70E9454046624E5
:100090000E9439048FEB12E00E944804E6EAFBE07C
:1000A0000E943204E1E0F0E00E944B040E94390417
:1000B000A09AA19AA29AA39AA498A598A698A7985C
:1000C00000E010E020E030E0A0E6B0E00D931D93EA
:1000D0002D933C9300E010E020E030E0A4E6B0E097
:1000E0000D931D932D933C9380E080936C0080E0F2
:1000F00080936D0084E690E00E942605A89AA99856
:10010000AA98AB9884E690E00E9426059C9B0C94EC
:10011000B600E6EBFBE00E94320440E050E060E015
:1001200070E0A0E6B0E00D911D912D913C910E94F0
:100130006B0511F00C94A80007E010E020E030E01F
:10014000A0E6B0E00D931D932D933C930C94B20068
:1001500007E010E020E030E0A4E6B0E00D931D934E
:100160002D933C938CEB92E00E9426059D9B0C9472
:10017000E600E8EBFBE00E94320440E050E060E083
:1001800070E0A0E6B0E00D911D912D913C910E9490
:100190006B0511F00C94D80008E010E020E030E08E
:1001A000A0E6B0E00D931D932D933C930C94E200D8
:1001B00008E010E020E030E0A4E6B0E00D931D93ED
:1001C0002D933C938CEB92E00E9426059E9B0C9411
:1001D0001601EAEBFBE00E94320440E050E060E0F0
:1001E00070E0A0E6B0E00D911D912D913C910E9430
:1001F0006B0511F00C94080109E010E020E030E0FC
:10020000A0E6B0E00D931D932D933C930C94120146
:1002100009E010E020E030E0A4E6B0E00D931D938B
:100220002D933C938CEB92E00E9426059F9B0C94AF
:100230002701ECEBFBE00E94320480E080936D002C
:1002400080E080936C008CEB92E00E94260584E6AF
:1002500090E00E942605A898A99AAA98AB9884E6EF
:1002600090E00E9426059C9B0C946301EEEBFBE062
:100270000E94320440E050E060E070E0A0E6B0E0B0
:100280000D911D912D913C910E946B0511F00C94E4
:10029000550104E010E020E030E0A0E6B0E00D936E
:1002A0001D932D933C930C945F0104E010E020E03B
:1002B00030E0A4E6B0E00D931D932D933C938CEBBE
:1002C00092E00E9426059D9B0C949301E0ECFBE0DC
:1002D0000E94320440E050E060E070E0A0E6B0E050
:1002E0000D911D912D913C910E946B0511F00C9484
:1002F000850105E010E020E030E0A0E6B0E00D93DD
:100300001D932D933C930C948F0105E010E020E0A9
:1003100030E0A4E6B0E00D931D932D933C938CEB5D
:1003200092E00E9426059E9B0C94C301E2ECFBE048
:100330000E94320440E050E060E070E0A0E6B0E0EF
:100340000D911D912D913C910E946B0511F00C9423
:10035000B50106E010E020E030E0A0E6B0E00D934B
:100360001D932D933C930C94BF0106E010E020E018
:1003700030E0A4E6B0E00D931D932D933C938CEBFD
:1003800092E00E9426059F9B0C94D401E4ECFBE0D4
:100390000E94320480E080936D0081E080936C00C5
:1003A0008CEB92E00E94260584E690E00E942605F0
:1003B000A898A998AA9AAB9884E690E00E9426058E
:1003C0009C9B0C941002E6ECFBE00E94320440E09F
:1003D00050E060E070E0A0E6B0E00D911D912D913D
:1003E0003C910E946B0511F00C94020201E010E0B8
:1003F00020E030E0A0E6B0E00D931D932D933C93F8
:100400000C940C0201E010E020E030E0A4E6B0E043
:100410000D931D932D933C938CEB92E00E94260547
:100420009D9B0C944002E8ECFBE00E94320440E00B
:1004300050E060E070E0A0E6B0E00D911D912D91DC
:100440003C910E946B0511F00C94320202E010E026
:1004500020E030E0A0E6B0E00D931D932D933C9397
:100460000C943C0202E010E020E030E0A4E6B0E0B2
:100470000D931D932D933C938CEB92E00E942605E7
:100480009E9B0C947002EAECFBE00E94320440E078
:1004900050E060E070E0A0E6B0E00D911D912D917C
:1004A0003C910E946B0511F00C94620203E010E095
:1004B00020E030E0A0E6B0E00D931D932D933C9337
:1004C0000C946C0203E010E020E030E0A4E6B0E021
:1004D0000D931D932D933C938CEB92E00E94260587
:1004E0009F9B0C948102ECECFBE00E94320481E0C3
:1004F00080936D0080E080936C008CEB92E00E9412
:10050000260584E690E00E942605A898A998AA9856
:10051000AB9A84E690E00E9426059C9B0C94C00256
:100520000E943904EEECFBE00E94320400E010E08F
:1005300020E030E0A0E6B0E00D931D932D933C93B6
:1005400000E010E020E030E0A4E6B0E00D931D9361
:100550002D933C9380E080936D0080E080936C004D
:1005600000E010E020E030E0A8E6B0E00D931D933D
:100570002D933C93E2E0F0E00E944B040E9439048A
:100580009D9B0C94F002E4EDFBE00E94320440E0FD
:1005900050E060E070E0A0E6B0E00D911D912D917B
:1005A0003C910E946B0511F00C94E20200E010E017
:1005B00020E030E0A0E6B0E00D931D932D933C9336
:1005C0000C94EC0200E010E020E030E0A4E6B0E0A3
:1005D0000D931D932D933C938CEB92E00E94260586
:1005E0009E9B0C9415040E94390400916D0000300C
:1005F00081E009F080E08F9300916C00003081E091
:1006000009F080E09F918923882311F40C943C0326
:10061000E0E6F0E0A8E0B4E00E9481050E942A0430
:10062000ECEBFBE00E943204E4E6F0E0A8E0B4E08A
:100630000E9481050E942A04E6EDFBE00E9432043C
:10064000A0E6B0E00D911D912D913C91A4E6B0E0A3
:100650004D915D916D917C910E94C604A8E6B0E039
:100660004D935D936D937D93E8E6F0E0A8E0B4E0F0
:100670000E9481050E942A0400916D00003081E0F3
:1006800009F080E08F9300916C00013081E009F067
:1006900080E09F918923882311F40C948303E0E682
:1006A000F0E0A8E0B4E00E9481050E942A04E4EC96
:1006B000FBE00E943204E4E6F0E0A8E0B4E00E942F
:1006C00081050E942A04E6EDFBE00E943204A0E6C8
:1006D000B0E00D911D912D913C91A4E6B0E04D91BB
:1006E0005D916D917C910E943A05A8E6B0E00D9372
:1006F0001D932D933D93E8E6F0E0A8E0B4E00E945E
:1007000081050E942A0400916D00013081E009F00A
:1007100080E08F9300916C00003081E009F080E070
:100720009F918923882311F40C94CA03E0E6F0E03A
:10073000A8E0B4E00E9481050E942A04ECECFBE0F2
:100740000E943204E4E6F0E0A8E0B4E00E948105F3
:100750000E942A04E6EDFBE00E943204A0E6B0E02D
:100760000D911D912D913C91A4E6B0E04D915D91CC
:100770006D917C910E946605A8E6B0E00D931D93F3
:100780002D933D93E8E6F0E0A8E0B4E00E948105F7
:100790000E942A0400916D00013081E009F080E0A0
:1007A0008F9300916C00013081E009F080E09F910F
:1007B0008923882311F40C941104E0E6F0E0A8E00A
:1007C000B4E00E9481050E942A04E8EDFBE00E944B
:1007D0003204E4E6F0E0A8E0B4E00E9481050E9463
:1007E0002A04E6EDFBE00E943204A0E6B0E00D91A1
:1007F0001D912D913C91A4E6B0E04D915D916D91DC
:100800007C910E946105A8E6B0E00D931D932D93A5
:100810003D93E8E6F0E0A8E0B4E00E9481050E9484
:100820002A048CEB92E00E9426059F9B0C942604E0
:10083000E8EDFBE00E94320481E080936D0081E0EE
:1008400080936C008CEB92E00E9426050C947A0059
:10085000F894FFCFA8E0B4E08D91882311F06CD01C
:10086000FBCF08950E945D05802D11F065D0FACF71
:10087000089581E067D015D080E864C08FE721300B
:1008800039F08FEB223021F08FE8233009F08FEC24
:10089000810F0C94A20488EE93E0D8D03197D9F759
:1008A000089583E09927D2C08AEF90E00E94260540
:1008B000D79AD69AD59AD49AD29AD09AD89885E0CF
:1008C00090E00E942605DA98DF98DE98DD9ADC9A9F
:1008D000DA9AEF93FF93E5E1F0E00E941A05FF91A9
:1008E000EF91DA98B0D0DA9AEF93FF93E5E1F0E078
:1008F0000E941A05FF91EF91DA98A5D0DA9AEF934A
:10090000FF93E5E1F0E00E941A05FF91EF91DA987C
:100910009AD0DC98DA9AEF93FF93E5E1F0E00E9439
:100920001A05FF91EF91DA988ED088E20BD08EE015
:1009300009D086E007D00895D89A829505D004D0D2
:1009400082D00895D898F9CF859510F4DC9A01C02B
:10095000DC98859510F4DD9A01C0DD98859510F43A
:10096000DE9A01C0DE98859510F4DF9A01C0DF9809
:10097000DA9AEF93FF93E5E1F0E00E941A05FF9108
:10098000EF91DA98089500FC05D0089530D005D095
:1009900001F8F9CF37D03FD00895842F952FA62F97
:1009A000B72FE894452B462B472B11F468940895F4
:1009B000402F512F622F732F002711272227332713
:1009C000F0E2440F551F661F771F001F111F221FE3
:1009D000331F081B190B2A0B3B0B416028F4080F2F
:1009E000191F2A1F3B1F4E7FFA9559F708950024BF
:1009F000E89477FF02C006D0689400F809D010F898
:100A00000124089512D04F5F5F4F6F4F7F4F0895BD
:100A1000E89437FF089500951095209530950F5F65
:100A20001F4F2F4F3F4F6894089540955095609504
:100A3000709508953197F1F70895689462F80895D4
:100A4000E89462F8089581E090E000C0EF93FF938E
:100A5000EE27E82BE92B31F0EAEFF0E03197F1F7E0
:100A60000197D1F7FF91EF91089501911191219193
:100A7000308108950F921F922F92C801D901489F8B
:100A800080014A9F90014B9F202C499F100D211DF2
:100A9000321D5A9F202C589F100D211D321D599F29
:100AA000200D311D689F200D311D699F300D789FED
:100AB000300D2F901F900F900895C895319600200B
:100AC0000895040F151F261F371F0895041B150BCB
:100AD000260B370B089504171507260737070895C7
:100AE000000F111F221F331F0895009510952095A8
:100AF00030950F5F1F4F2F4F3F4F08950191108189
:100B00000FC00E9435050EC00E94350510C001912E
:100B1000108117FF05C03FEF2FEF04C000811127A0
:100B20002227332737FF03C0E0DF8DE28D93CF927A
:100B3000DF92EF92AA24BB24CC24DD24EE2440E2F1
:100B4000EAE0FF2755E093E38081890F87FD9F70DE
:100B500083FD907F891B81935A95A9F7C1DFAA1C59
:100B6000BB1CCC1CDD1CEE1C4A9551F7E894EFE051
:100B7000FF2782910BD0EB30E0F71EF068948A2DAE
:100B800009D04D93EF90DF90CF900895982F8295E4
:100B900001D0892F8F70805D26F0803309F408958D
:100BA00068948D9308954B65797061642050726FDD
:100BB0006A65637400003700380039002F00340084
:100BC000350036002A003100320033002D007265F6
:0A0BD0007365740030003D002B0037
:00000001FF
